:020000040800F2
:10000000680800206102000811210008C91E0008CC
:100010000D2100080D04000829230008000000003D
:10002000000000000000000000000000192100088E
:100030005105000800000000152100081D210008DE
:100040007B0200087B0200087B0200087B0200089C
:100050007B0200087B0200087B0200087B0200088C
:100060007B0200087B0200087B0200087B0200087C
:100070007B0200087B0200087B0200087B0200086C
:100080007B0200087B0200087B02000800000000E1
:100090000000000000000000000000007B020008DB
:1000A0007B0200087B0200087B0200087B0200083C
:1000B0007B0200087B020008E12100087B020008A7
:1000C0007B0200087B0200087B0200087B0200081C
:1000D0007B0200087B0200087B0200080000000091
:1000E0007B0200087B0200087B0200080000000081
:1000F0000000000000000000000000007B0200087B
:10010000000000007B0200087B0200087B02000860
:1001100000000000000000000000000000000000DF
:100120007B0200087B0200087B0200087B020008BB
:100130007B0200080000000000000000000000003A
:100140000000000000000000000000007B0200082A
:100150007B0200087B0200087B0200087B0200088B
:100160007B0200087B020008000000000000000085
:10017000000000000000000000000000000000007F
:10018000000000007B0200080000000000000000EA
:100190007B02000800F002F800F052F814A696E87E
:1001A000000CB244B344DA4501D100F049F8BAE892
:1001B0000F000FA696E83000A5EB040504EB060738
:1001C000AAEB0704A7F101074FEA15154FEA34140B
:1001D000A4F10104AC4201D300F032F813F0010F96
:1001E00018BFFB1A43F0010300F001F8DBE71847E2
:1001F0005025000070250000103A24BF78C878C14F
:10020000FAD8520724BF30C830C144BF04680C601C
:1002100070470000704700000023002400250026DE
:10022000103A28BF78C1FBD8520728BF30C148BF59
:100230000B6070471FB502F065FA1FBD10B510BD09
:1002400000F0A9F81146FFF7F5FF02F06FF800F093
:10025000C7F803B4FFF7F2FF03BC00F0CFF80000CB
:100260000948804709480047FEE7FEE7FEE7FEE74A
:10027000FEE7FEE7FEE7FEE7FEE7FEE70448054986
:10028000054A064B70470000CD2100089501000883
:10029000680200206808002068040020680400202C
:1002A00053EA020C00F069802DE9F04B4FF0000694
:1002B000002B1FBFB3FA83F503FA05F424FA05F601
:1002C0005E4012BF1643B2FA82F502FA05F4C5F198
:1002D00020051EBF22FA05FC44EA0C04203556EA2C
:1002E000044C4FEA144418BF641C4FF000084FF050
:1002F0000009904271EB030C39D3002919BFB1FA00
:1003000081F701FA07F6B0FA80F700FA07F6C7F1AD
:1003100020071EBF20FA07FC46EA0C062037B6FB72
:10032000F4FCA7EB0507103F07F01F0BCBF12006ED
:100330002CFA06F60CFA0BFB44BFB3460026202F1E
:10034000A4BF5E464FF0000B5BEA060C08BF4FF0FF
:10035000010B19EB0B0948EB0608ABFB027C06FB13
:1003600002CC0BFB03CCC01B71EB0C01C1E70B46AD
:10037000024641464846BDE8F08B13B5084318BF16
:100380004FF0FF300146AFF30080BDE81C407047DE
:10039000704770477047754600F02CF8AE46050070
:1003A0006946534620F00700854618B020B5FFF790
:1003B00065FFBDE820404FF000064FF000074FF00A
:1003C00000084FF0000BAC46ACE8C009ACE8C0092F
:1003D000ACE8C009ACE8C00921F007018D467047C0
:1003E00010B50446AFF300802046BDE81040FFF78B
:1003F00030BF00000048704710000020014918205D
:10040000ABBEFEE72600020070470000FEE70000DA
:1004100010B540F20044C4F2020420464FF480516B
:10042000002200F06DF920464FF40051012200F047
:1004300067F920464FF48041002200F061F9204620
:100440004FF400410122BDE8104000F059B900000E
:1004500010B540F20044C4F2020420464FF480512B
:10046000012200F04DF920464FF40051002200F027
:1004700047F920464FF48041012200F041F920461F
:100480004FF400410022BDE8104000F039B90000EF
:1004900010B540F20044C4F2020420464FF48051EB
:1004A000012200F02DF920464FF40051002200F007
:1004B00027F920464FF48041002200F021F9204620
:1004C0004FF400410122BDE8104000F019B90000CE
:1004D00010B540F20044C4F2020420464FF48051AB
:1004E000002200F00DF920464FF40051012200F0E7
:1004F00007F920464FF48041012200F001F920461F
:100500004FF400410022BDE8104000F0F9B80000AF
:1005100010B540F20044C4F2020420464FF480516A
:10052000002200F0EDF820464FF40051002200F0C8
:10053000E7F820464FF48041002200F0E1F8204621
:100540004FF400410022BDE8104000F0D9B800008F
:1005500070470000EFF3108072B600BFFEE70000A6
:100560002DE9F04F82B000F13E4202F1FF728705A3
:1005700041F2000647EA9227C4F20206072243F638
:10058000004EB04208BF0422C4F2010E042F38BF4F
:100590003A46002700264FF00008009209E000BF0D
:1005A00008F101080236B8F1100F07F1040700F056
:1005B000A3800A68012303FA08F412EA0409EFD0C1
:1005C000D1F804C003230CF0030BABF1010203FAD2
:1005D00006F5012A6FEA050A10D88268CD6802EA9A
:1005E0000A02B5402A4382604268A243CCF3001459
:1005F00004FA08F42243426006E000BFBBF1030F97
:1006000002D14FF0030B1EE0C2688C6802EA0A02B6
:10061000B4402243BBF1020FC26014D16FF0030259
:1006200002EA58020244D2F820C007F01C040F234B
:100630000D69A3402CEA0303A5402B431362D1F8B4
:1006400004C00CF0030B02680BFA06F302EA0A027C
:100650001A435FEACC030260A2D5002243F64403AA
:100660000192C4F202031A684FF6084C42F4804229
:100670001A601A68CFF6FF7C02F480420192019A58
:1006800028F00302724452F80C3007F00C050F24D6
:10069000AC40A343009C04FA05F52B4342F80C3010
:1006A000DEF800204B6842EA0905DC0358BF22EA65
:1006B0000905CEF80050DEF804209C0342EA090543
:1006C00058BF22EA0905CEF80450DEF80820DC0203
:1006D00042EA090543F60C4458BF22EA0905CEF860
:1006E0000850C4F2010422689B0242EA090558BF7F
:1006F00022EA0905256053E702B0BDE8F08F00004B
:10070000002A08BF090481617047000040F264209C
:10071000C2F200000068704740F2000040F264211D
:10072000C2F20000C2F2000100780A6810440860BA
:100730007047000080B543F60040C4F20200016833
:1007400041F400710160016841F480610160016859
:1007500041F480710160032000F086F80F2000F062
:1007600005F800F027F8002080BD000070B540F2C9
:100770000006C2F2000640F208013278C2F200011F
:100780004FF47A730968B3FBF2F20446B1FBF2F15D
:10079000084600F061FB0F2C4FF0010508D838B96E
:1007A0004FF0FF3021460022002500F031F8746040
:1007B000284670BD82B0002043F640010190C4F28B
:1007C00002014A6842F480424A604A6802F4804268
:1007D0000192019A0090086840F080500860086813
:1007E00000F080500090009802B07047002848BF89
:1007F000704700F01F01012202FA01F11C2202EAF7
:10080000D0004EF20012CEF200028150704700007C
:1008100010B54EF60C5CCEF2000CDCF80030C3F3E1
:10082000022E8EF00704042C28BF0424BEF103031B
:100830004FF0FF3E0EFA04F438BF0023A143994065
:100840000EFA03F39A43114300F00F0200F16043E4
:100850000901043A03F564436244002848BF02F1E9
:100860000C03197010BD00004EF60C51CEF20001C1
:100870000A684FF6FF031A4060F30A2242F08060D4
:1008800040F0FD7008607047002804BF01207047E9
:100890002DE9F04143F60808C4F202080446D8F8EE
:1008A000F8030D4600F00700884207D288F8F85395
:1008B000D8F8F80300F00700A84277D12068810734
:1008C00017D5410705D5D8F8001041F4E051C8F814
:1008D0000010010705D5D8F8001041F46041C8F8B0
:1008E0000010D8F80010A26821F0F0011143C8F8F8
:1008F0000010C00740D1D8F8F80300F00700A84264
:1009000007D988F8F853D8F8F80300F00700A84290
:100910004CD12068410707D5D8F80010E26821F4CF
:10092000E0511143C8F80010000708D5D8F80000BE
:10093000216920F4604040EAC100C8F8000000F0DE
:100940007DF8D8F8001042F21E72C1F30311C0F610
:100950000002515C40F2080220FA01F140F204006A
:10096000C2F200000068C2F200021160FFF7FEFE52
:100970000020BDE8F08100BF6068811E022907D217
:1009800058F8081C89015CBF0120BDE8F08111E026
:10099000012807D158F8081C89035CBF0120BDE875
:1009A000F08107E058F8081C890703D40120BDE84E
:1009B000F08100BFD8F8001021F003010843C8F807
:1009C0000000FFF7A3FE064641F28837D8F8000082
:1009D000616800F00C00B0EB810F8CD0FFF796FE41
:1009E000801BB842F2D90320BDE8F08140F2080034
:1009F00043F60801C2F20000C4F20201006809686F
:100A000042F22E72C1F38221C0F60002515CC8404E
:100A10007047000040F2080043F60801C2F20000EF
:100A2000C4F202010068096842F22E72C1F3423139
:100A3000C0F60002515CC8407047000010B543F694
:100A40000404C4F20204606800F00C0008280BD013
:100A5000042819BF42F20040C0F2F40047F64000FB
:100A6000C0F27D1010BD00BF2068216823684902D4
:100A700047F64001C0F27D1100F03F02C3F3881039
:100A80005CBF42F20041C0F2F401A1FB000100236F
:100A9000FFF706FC21680222C1F3014102EB41018C
:100AA000B0FBF1F010BD0000002804BF012070472A
:100AB0002DE9F04182B00446007843F60006C007F5
:100AC000C4F202060CD0B06800F00C00042840F01C
:100AD00081803068800303D56068002800F06A8157
:100AE000207880071BD5B06810F00C0F09D0B068D3
:100AF00000F00C00082840F087807068400200F188
:100B000083803068800703D5E068012840F0528177
:100B10003068216920F0F80040EAC1003060207898
:100B2000000713D4207840072AD4A569002D00F0CF
:100B30003C81B06800F00C00082840F0A180012D35
:100B400040F01081012002B0BDE8F081606900280A
:100B500040F20000C4F2472000F07E800121C0F87E
:100B6000801EFFF7D3FD0546706F8007DAD4FFF7CC
:100B7000CDFD401B0228F7D9032002B0BDE8F0816B
:100B8000306C5FEAC0080AD400200190306C40F05D
:100B900080503064306C00F080500190019847F232
:100BA0000007C4F200073868C00547D4386840F42D
:100BB00080703860FFF7AAFD054600BF3868C005A1
:100BC0003CD4FFF7A3FD401B0228F7D9032002B055
:100BD000BDE8F081B06800F00C00082803D170680F
:100BE00040023FF576AF6068B0F5803F07D0B0F5C2
:100BF000A02F40F09B80306840F480203060306847
:100C000040F4803030609BE0E06800285CD0002039
:100C1000C4F2472001210160FFF778FD054600BFBF
:100C2000306880073FF574AFFFF770FD401B022866
:100C3000F6D9032002B0BDE8F08100BFA06801280A
:100C400005D0052854D1306F40F004003067306F74
:100C500040F00100306755E00021C0F8801EFFF72A
:100C600055FD0546706F80077FF55CAFFFF74EFDC1
:100C7000401B0228F6D9032002B0BDE8F08100BF76
:100C80000027C4F2472700203866FFF73FFD022DFA
:100C900005460DD13068800140F19080FFF736FDA8
:100CA000401B02284FF00300F4D902B0BDE8F081E8
:100CB0003068800179D5FFF729FD401B02284FF0ED
:100CC0000300F5D9F1E700BF0020C4F2472000215E
:100CD0000160FFF71BFD0546306880077FF51FAFF9
:100CE000FFF714FD401B02284FF00300F4D9DCE7A6
:100CF000316F002821F001013167316F21F00401CB
:100D000031677DD0FFF702FD054641F2883700BF0D
:100D1000306F800700F18680FFF7F8FC401BB84277
:100D2000F6D9032002B0BDE8F08100BF3168002889
:100D300021F480313160316821F4802131607BD031
:100D4000FFF7E4FC054600BF306880033FF5C8AEFE
:100D5000FFF7DCFC401B6428F6D9032002B0BDE895
:100D6000F08100BF7068E16900F480028A4221D1FD
:100D7000216A00F03F028A421CD147F6C071626AC4
:100D80000140B1EB821F15D1A16A4FF6FF73C90371
:100D9000994300F44032A1F580318A420AD1E16AD8
:100DA00000F07060B0EB016F04D1002002B0BDE82C
:100DB000F08100BF012002B0BDE8F08104F11C0504
:100DC0002FCD084340EA8210D9034FF6FF729143BA
:100DD000A1F5803140EA0560084370600120386663
:100DE000FFF794FC044600BF30688001DDD4FFF7B4
:100DF0008DFC001B02284FF00300F5D955E700BF1A
:100E0000FFF784FC054641F2883700BF306F80074A
:100E100008D5FFF77BFC401BB8424FF00300F5D923
:100E200043E700BFB8F1000F3FF57FAE306C20F014
:100E30008050306479E600BFFFF768FC054600BFCC
:100E4000306880037FF54CAEFFF760FC401B6428E0
:100E50004FF00300F4D928E7411E0020B0EB116FDA
:100E60001CBF012070474EF21002CEF2000251600A
:100E70004EF62351CEF20001F0230B700721906053
:100E800011607047704700007047000090F83C20E8
:100E9000012A4FF0020241D010B580F83D200268CF
:100EA000D2F804E0D2F808C00C682EF07003234397
:100EB00040F6FF34C4F20004A242536010DCB2F1E9
:100EC000804F1ED040F20043C4F200039A4218D073
:100ED00040F60003C4F200039A4212D016E000BFAD
:100EE00040F60043C4F200039A420AD044F20003E1
:100EF000C4F201039A4204D00023C4F201039A42CF
:100F000004D149682CF0800319439160012100222B
:100F100080F83D1080F83C20BDE810401046704736
:100F200070B540F27005C2F200056978044699B1C7
:100F30006878012818BF70BD20460021002600F007
:100F400081FDE86024686662E868A968884217D96C
:100F5000E868A968401A1DE020460021002600F03C
:100F600071FDA860012068702068016A21F00A0103
:100F70000162016A41F0020101622E7070BD00BF82
:100F8000A868E968884206D9A868E968081A4FF68F
:100F9000FF7108442861286901F0A3FA9FED0E0B48
:100FA00053EC102B01F0B0FA01F06CFAA88000208D
:100FB0006870206A012620F00A002062206A206200
:100FC00040F29410C2F200000068C16821F00201F2
:100FD000C1602E7070BD00BF9CC420B07268913F8C
:100FE00090F83C30012B04BF02207047F0B5082A6E
:100FF00028D0042A46D0002A62D10368D1E900C56E
:10100000D1F80CE01A6A40F6FF3722F001021A62AA
:101010001A4652F8186F1C6AC4F20007BB4275DC0E
:10102000B3F1804F00F0838040F20047C4F2000724
:10103000BB4200F07C8040F60007C4F20007BB42D0
:1010400075D08FE00768D1E900C5D1E902313A6A6D
:1010500061F3071522F480723A623A4652F81C4F47
:101060003E6A24F0F30445EA040126F420660CF0FD
:101070000A0546EA052611603E62116821F00C015E
:10108000116065E00368D1E900E6D1E902C11A6A9E
:10109000360222F010021A621A4652F8184F4FF226
:1010A000FF071D6ABE4324F4734461F30F3646EA1A
:1010B000040125F0A0040EF00A0744EA07171CE01B
:1010C0000368D1E900E6D1E902C11A6A360222F4C6
:1010D00080521A621A4652F81C4F4FF2FF071D6ADF
:1010E000BE4324F4734461F30F3646EA040125F449
:1010F00020440EF00A0744EA073711601F621168A6
:101100004FEA0C2321F44061116021E040F60047D2
:10111000C4F20007BB420AD044F20007C4F2010740
:10112000BB4204D00027C4F20107BB421AD126F00B
:101130000306354324F00A070CF00A066EF3071580
:1011400037449D611F629F6927F00C079F618B6880
:10115000116819431160002180F83C10BDE8F0408F
:101160000846704746F00105E4E70000002804BF88
:101170000120704710B5044690F83D0028B90020C2
:1011800084F83C00204600F08FF8022084F83D00EF
:10119000206840F2FF730268C4F2000340F2000CC2
:1011A0009842C4F2010C1DDD40F60001C4F20001BA
:1011B000884220D060451ED040F60041C4F20001B4
:1011C000884218D04FF6FF71C4F2000188421CDC3F
:1011D000984225DCB0F1804F3AD040F20041C4F291
:1011E000000133E0B0F1804F05D040F20041C4F27D
:1011F00000018842E6D1A16822F070020A434FF64E
:10120000FF71C4F200018842E2DD44F2FF31C4F212
:101210000101884210DC60451AD044F2000113E05D
:1012200040F60001C4F20001884211D040F60041AE
:10123000C4F200010AE000BF44F60001C4F201015B
:10124000884205D044F20041C4F20101884203D132
:10125000216922F440720A43A36922F08001D4F884
:1012600004E0E268194360450160C262C0F828E00A
:1012700002D16169CCF8301001214161002084F86D
:10128000461084F83E1084F83F1084F8401084F82B
:10129000411084F8421084F8431084F8441084F814
:1012A000451084F83D1010BD016840F60000C4F2FE
:1012B0000000814218BF704780B586B0002143F618
:1012C00030020191C4F20202136900F5FE3043F0CE
:1012D00004031361136903F004030193019B01915B
:1012E000136843F002031360126802F002020192D5
:1012F000019A402201920222CDE90221CDE9041295
:1013000001A9FFF72DF91E2000210022FFF780FA26
:101310001E20FFF76BFA06B0BDE880407047000062
:1013200061B1082916D0042919BF00F1410200F16A
:10133000450300F13F0200F143030FE090F83E2027
:1013400090F84230012A4FF0010208BF012B1BD058
:101350001046704700F1400200F1440312781B78F8
:10136000012A4FF0010208BF012BF1D10222082906
:1013700014D0042924D180F83F2080F843204FEA7C
:10138000B102032A12D923E0022280F83E2080F81D
:1013900042204FEAB102032A08D919E080F8402020
:1013A00080F844204FEAB102032A11D8DFE802F0A6
:1013B0000212181E0068C26842F002021AE000BF62
:1013C00080F8412080F845204FEAB102032AEDD988
:1013D000006810E00068C26842F004020AE000BF42
:1013E0000068C26842F0080204E000BF0068C268FA
:1013F00042F01002C26001F01F010122036A02FAEA
:1014000001F123EA01020262026A114340F6FF324F
:10141000C4F200029042016210DCB0F1804F1ED095
:1014200040F20041C4F20001884218D040F60001A9
:10143000C4F20001884212D016E000BF40F600411D
:10144000C4F2000188420AD044F20001C4F2010152
:10145000884204D00021C4F20101884204D181688D
:1014600001F00701062903D0016841F00101016084
:10147000002210467047000010B501680446086954
:10148000800744BFC8685FEA807039D408694007A4
:1014900044BFC8685FEA40703ED40869000744BF93
:1014A000C8685FEA007045D40869C00644BFC868D0
:1014B0005FEAC0604AD40869C0071CBFC8685FEA19
:1014C000C07051D10869000644BFC8685FEA006077
:1014D00052D40869400644BFC8685FEA406053D4EC
:1014E0000869800646BFC8685FEA806010BD6FF07B
:1014F000200220460A61BDE81040FFF7C5BC00BFCE
:101500006FF002000861012020778869800743D0CE
:101510002046FFF705FD45E06FF00400086102205A
:101520002077886910F4407F40D02046FFF7F8FC10
:1015300042E000BF6FF00800086104202077C8690E
:1015400080073DD02046FFF7EBFC3FE06FF0100036
:10155000086108202077C86910F4407F3AD02046FF
:10156000FFF7DEFC3CE000BF6FF0010008612046A1
:1015700000F066FA2168A5E76FF080000861204658
:10158000FFF780FC2168A4E76FF040000861204667
:1015900000F072FA2168A3E7204600F025F8204603
:1015A00000F0D4F92168002020776FE7204600F092
:1015B0001BF8204600F0CAF92168002020776CE76C
:1015C000204600F011F8204600F0C0F92168002004
:1015D000207769E7204600F007F8204600F0B6F9CA
:1015E00021680020207766E77047000090F83C30C3
:1015F000012B04BF022070474FEAB202032A00F217
:10160000E7802DE9F043DFE802F0033975AF00BF52
:10161000036800261A6AC4F2010622F001021A6267
:101620001D6A1A465C6852F818CFB3428E68D1F82A
:1016300000E025F0020545EA06050CD1CE68D1E9A7
:10164000057824F4407425F00C0526F004063C438C
:10165000354344EA08042CF0730747EA0E075C6040
:101660009F614F6809695F631D629F6947F00807C2
:101670009F619F6927F004079F61A4E0036800262B
:101680001A6AC4F2010622F010021A621D6A1A4692
:10169000D3F804C052F8184FB3428E68D1F800E076
:1016A00025F0200545EA06150FD1CE68D1E9059849
:1016B0006FF0400725F0C00507EA061635432CF405
:1016C000406748EA090647EA860C24F4E64444EAFF
:1016D0000E27C3F804C09F614F6809699F631D62AC
:1016E0009F6947F400679F619F6927F480679F6146
:1016F00068E000BF036800261A6AC4F2010622F4FB
:1017000080721A621D6A1A46D3F804C052F81CEFA0
:10171000B3428E680C6825F4007545EA06250FD1A2
:10172000CE68D1E90598360240F2FF4725F44065BE
:10173000BE4335432CF4405748EA090647EA061CE5
:101740002EF073072743C3F804C0DF614F680969AF
:10175000DF631D62DF6947F00807DF61DF6927F09B
:101760000407DF612FE000BF036800271A6AC4F294
:10177000010722F480521A621A46D3F820C05D682D
:1017800052F81C4FD1F800E08E68BB4204D14F697B
:1017900025F4804545EA87152CF4005747EA0637BB
:1017A00024F4E64646EA0E265D60DE614E6809696D
:1017B0001E641F62DF6947F40067DF61DF6927F499
:1017C0008067DF610902136819431160BDE8F043C7
:1017D000002180F83C10084670470000002804BF34
:1017E0000120704710B5044690F83D0028B900204C
:1017F00084F83C00204600F08FF8022084F83D0079
:10180000206840F2FF730268C4F2000340F2000C4B
:101810009842C4F2010C1DDD40F60001C4F2000143
:10182000884220D060451ED040F60041C4F200013D
:10183000884218D04FF6FF71C4F2000188421CDCC8
:10184000984225DCB0F1804F3AD040F20041C4F21A
:10185000000133E0B0F1804F05D040F20041C4F206
:1018600000018842E6D1A16822F070020A434FF6D7
:10187000FF71C4F200018842E2DD44F2FF31C4F29C
:101880000101884210DC60451AD044F2000113E0E7
:1018900040F60001C4F20001884211D040F6004138
:1018A000C4F200010AE000BF44F60001C4F20101E5
:1018B000884205D044F20041C4F20101884203D1BC
:1018C000216922F440720A43A36922F08001D4F80E
:1018D00004E0E268194360450160C262C0F828E094
:1018E00002D16169CCF8301001214161002084F8F7
:1018F000461084F83E1084F83F1084F8401084F8B5
:10190000411084F8421084F8431084F8441084F89D
:10191000451084F83D1010BD006840F20041C4F24B
:101920000001884218BF704781B00020009043F644
:101930004000C4F20200016841F002010160006849
:1019400000F002000090009801B07047704700005E
:1019500041B1082910D0042914BF00F1410200F15F
:101960003F020BE090F83E20012A1CBF0120704787
:10197000022280F83E2013E000F140021278012A92
:101980001CBF012070470222082907D0042914BF78
:1019900080F8412080F83F2002E000BF80F840201E
:1019A000006801F01F010122036A8A4023EA020154
:1019B0000162036A4421C4F201011A43A1F1440304
:1019C0009842026216D040F6FF31C4F2000188420C
:1019D0001ADCB0F1804F28D040F20041C4F200017F
:1019E000884222D040F60001C4F2000188421CD097
:1019F00020E000BF0A6842F400420A6040F6FF316E
:101A0000C4F200018842E4DD40F60041C4F2000166
:101A100088420AD044F20001C4F20101884204D095
:101A20000021C4F20101884204D1816801F007015C
:101A3000062903D0016841F00101016000207047D0
:101A4000704700004FEAB101032984BF00207047AE
:101A5000DFE801F0020E060A0068343000687047C3
:101A600000683C300068704700684030006870478C
:101A7000006838300068704770470000002804BFD5
:101A80000120704710B5044690F83D0028B90020A9
:101A900084F83C00204600F021F8242084F83D0022
:101AA0002068C16821F40051C160204600F09EFB0F
:101AB0002068016921F490410161416921F02A0106
:101AC0004161C16841F40051C160002020212064BF
:101AD00084F83D1084F83E1010BD000080B586B03B
:101AE000006841F20042C4F2010200219042CDE9B7
:101AF0000411CDE90211019122D044F20041C4F257
:101B00000001884245D1002043F630010090C4F224
:101B100002010A6942F400320A610A6902F40032E1
:101B20000092009A0090086840F001000860086880
:101B30000C2100F001000090009807201BE000BF7E
:101B400043F630000091C4F20200426942F02002E4
:101B50004261426902F020020092009A00910168FD
:101B600041F00101016000684FF4C05100F0010034
:101B70000090009808200191022102910021039118
:101B80000321CDE904100020C4F2020001A9FEF7F0
:101B9000E7FC06B080BD00002DE9F04381B00446AB
:101BA00090F83E0020280DD10E4600294FF001008C
:101BB00000F088801746002A00F0848094F83C00EA
:101BC000012803D1022001B0BDE8F083012084F890
:101BD0003C00002022211D46206484F83E10206332
:101BE000FEF794FDA785E785A1680746B1F5805FFC
:101BF00001D1206910B1B046002601E04FF0000885
:101C0000002084F83C00E08D002857D005F1010940
:101C10000DE000BF40684FF000086FF35F2026F82A
:101C2000020BE08D0138E085E08D002846D0206869
:101C3000016889060ED4B9F1000F19D055B300BF61
:101C4000FEF764FDC11B2068A94223D801688906FC
:101C5000F6D500BFB8F1000FDCD0A168B1F5805F08
:101C600014D009B9216989B1406800F07F000EE005
:101C700001688906EED4016889065CBF01685FEAE5
:101C80008161E7D401688906F2D5E3E7406808F886
:101C9000010BC6E7C16821F4D071C160416921F030
:101CA00001014161202084F83D0084F83E000020BD
:101CB00084F83C00032001B0BDE8F083202084F8C4
:101CC0003E00002001B0BDE8F0830000034690F81C
:101CD0003E0020280AD100294FF0010018BF002A39
:101CE00000D1704793F83C00012801D102207047D1
:101CF00000201863996222219A85DA85186483F896
:101D00003E10196883F83C00CA6842F48072CA60C9
:101D10004A6942F001024A61CA6842F02002CA6080
:101D2000704700002DE9F041044690F83D0020285E
:101D30000ED10D4600294FF0010000F08E801646AE
:101D4000002A08BFBDE8F08194F83C00012803D1C7
:101D50000220BDE8F08100BF012084F83C00002093
:101D600020642120984684F83D00FEF7CFFCA6842D
:101D7000E684A1680646B1F5805F03D1206900289A
:101D800000F0A0802F460025002084F83C00E08C65
:101D9000E0B118F101001BD0B8F1000F60D120684C
:101DA0000BE000BF35F8021B00276FF35F21416095
:101DB000E18C0139E184E18C51B3016809066DD5EC
:101DC000002FEFD017F8011BF1E700BF20681FE0DC
:101DD000206802E00168090609D40168090606D4F2
:101DE000016809065CBF01685FEA0161F2D51FB1B5
:101DF00017F8011B05E000BF35F8021B00276FF341
:101E00005F214160E18C0139E184E18C0029E4D15A
:101E1000016849061DD4B8F1000F3FD018F1010147
:101E20000ED10168490614D4016849065CBF0168F7
:101E30005FEA41610DD401684906F2D509E000BFAF
:101E4000FEF764FC811B2068414527D800684006E6
:101E5000F6D5202084F83D000020BDE8F08100BFC9
:101E6000206800BF0168090606D4FEF74FFC811BFD
:101E700020684145F6D911E017B117F8011B04E0BD
:101E800035F8021B00276FF35F214160E18C0139B7
:101E9000E184E18C0029E5D1BAE700BFC16821F4F3
:101EA000D071C160416921F001014161202084F8B5
:101EB0003D0084F83E00002084F83C000320BDE88B
:101EC000F08100BF00275FE7FEE700002DE9F04347
:101ED00087B0002743F6300006970197C4F202004E
:101EE000016840F2000941F0010101600168C4F29B
:101EF000020901F00101019101990197016809F5B9
:101F0000806541F00201016000684FF2800100F03D
:101F1000020001900198284600224FF28006FEF749
:101F2000EFFB48464FF4806100224FF48068FEF7D3
:101F3000E7FB029602AE012428463146CDE903476D
:101F40000597FEF70DFB48463146CDE90284CDE901
:101F50000477FEF705FB07B0BDE8F083B0B590B09D
:101F600040F2004540F24C10C4F200050021C2F2DC
:101F700000004FF6FF72CDE90811CDE90611CDE959
:101F80000411C0E90051C0E9021201618161FFF74B
:101F900025FC002818BFFEF7DDFA40F24C10C2F213
:101FA000000008A9FEF772FF002818BFFEF7D2FA5A
:101FB000602040F24C1401900020C2F20004CDE9F0
:101FC0000200059001A920460022FFF70FFB002820
:101FD00018BFFEF7BFFA2068A84201D010B0B0BD0C
:101FE000002043F630010B90C4F202010A6842F06F
:101FF00001020A60096801F001010B910B9940216F
:102000000B910221CDE90C10CDE90E0105F5FE3052
:102010000BA9FEF7A5FA10B0B0BD000080B586B0E0
:1020200040F2941040F600020021C2F20000C4F217
:10203000000253234FF6FF7CCDE90411C0E90023D1
:10204000C0E9021C01618161FFF790F8002818BF08
:10205000FEF780FA40F29410C2F2000004A9FEF7E5
:1020600015FF002818BFFEF775FA00200121009027
:10207000CDE90110039040F29410C2F200006946CD
:102080000022FEF7ADFF002818BFFEF763FA06B086
:1020900080BD000080B540F2DC1044F20041C2F285
:1020A0000000C4F2000100234FF00C0C4FF4E132A9
:1020B00080E80E00C0E90333C0E905C3C361FFF740
:1020C000DDFC002808BF80BDBDE88040FEF742BAB5
:1020D00080B540F2202041F20041C2F20000C4F27B
:1020E000010100234FF00C0C4FF4165280E80E0053
:1020F000C0E90333C0E905C3C361FFF7BFFC002893
:1021000008BF80BDBDE88040FEF724BAFEE70000AE
:10211000FEE700007047000070470000FEF7FCBAC1
:10212000B0B592B0002443F640000B94CDE90944C9
:10213000CDE907440594CDE90344CDE90144009479
:10214000C4F202000168022541F08051016000687C
:1021500000F080500090009847F200000094C4F214
:102160000000016865F38F310160006800F44040B1
:10217000009000980120099010200A9008200E90ED
:102180005420CDE90F050420119006A80695CDE94D
:102190000C54FEF789FC28B1EFF3108072B600BF33
:1021A000FEE700BF0F20CDE901054FF48050CDE9D7
:1021B000040401A802210394FEF766FB20B1EFF3AB
:1021C000108072B6FEE700BF12B0B0BD4EF6885068
:1021D000CEF20000016841F4700101607047000018
:1021E00040F29410C2F20000FFF746B910B5044661
:1021F0000068D4E902C22369016921F44051114306
:102200000161626943EA0C01E3691143C268194341
:1022100049F20C639A431143C1604169A26921F4F8
:10222000407141F20043114340F48062C4F2010363
:102230009A42416102D1FEF7EDFB01E0FEF7D6FBC9
:10224000E16963681922B1F5004FA0FB020123D1B7
:102250005A00DB0FFEF724F848F21F51C5F2EB11CC
:10226000A0FB01235A094FF69C73C0F6FF7303F1DC
:10227000805302FB0300322303EBC000A0FB0101EB
:102280004FF4F87000EA111000EB0210C1F3421194
:1022900008442168886010BD9A009B0FFEF700F883
:1022A00048F21F51C5F2EB11A0FB01235A094FF66A
:1022B0009C73C0F6FF7302FB0300322303EB001094
:1022C000A0FB0101F02000EA511000EB0210C1F365
:1022D000431108442168886010BD0000B0B5044671
:1022E0000068A1880122FEF70BFA40F29415C2F2B1
:1022F0000005286800214162416A042908D8416A22
:10230000042905D8416A042902D8416A0529F3D372
:102310002068A1880022FEF7F3F92868C16841F01F
:102320000201C160B0BD0000FEE7000082B040F2D3
:1023300000090025C4F202098DF80750FEF7FAF9EA
:10234000FFF7EEFEFFF7C2FDFFF708FEFFF766FEA0
:10235000FFF7A0FEFFF7BCFE40F24C14C2F20004EF
:1023600020460021FFF7F4FA2068B6EE001A90ED3F
:102370000B0A0021B8EE400A20EE010ABCEEC00AAA
:1023800080ED0D0A40F29410C2F20000FEF7C8FF83
:1023900040F2700440F2DC18C2F20004C2F20008FD
:1023A000A11C40460222FFF791FC40F2202640F299
:1023B000840A42F2387BC2F200060DF10707C2F22E
:1023C000000AC0F6000B00BF207810B15846FFF796
:1023D00085FF3046394601221423FFF7DDFB9DF8C7
:1023E0000700002804BF8DF80750284605464238EC
:1023F0001128E9D8DFE800F0100E0E0E140E0E0EB4
:102400000E0E20240E0E0E0E380A00BFFEF780F8C6
:10241000DAE700BFD8E700BFFDF7FAFFD4E700BF57
:10242000A088142824D8FEF773F848464FF480613A
:102430000122FEF765F9C7E7FEF72AF8C4E700BFF7
:1024400030465146C8224FF0FF33FFF7A5FB9AF8FC
:1024500000000028B8D040465146C8224FF0FF3354
:10246000FFF760FCB0E700BFFEF732F8ACE700BF53
:1024700048464FF480610022FEF742F9FDF7E8FF7D
:10248000A2E700004FEA41034FEA5353A3F58063EC
:10249000D3F11E03C8BFD3F1210C0CDD4FF0004275
:1024A00042EAC12242EA505232FA03FC8CEAE17C51
:1024B000ACEBE1707047102BC4BF0020704703F5F0
:1024C000787CBCF1FF3F04D06FF0004282EA21002B
:1024D000704770B500F0C2F8499224800020704720
:1024E000F2E7B0FA80F310FA03F10AD0C3F11D034A
:1024F00003F580634FEA03524FEA415002EBD121CA
:1025000070474FF00000704770B5DFF848C11CEA13
:10251000111E1EBF1CEA13159EEA0C0F95EA0C0F44
:1025200000F06F8081EA03044EEAD47EAE4421EAD3
:102530004C1123EA4C1341F4801143F48013AEF1A3
:102540007F7EA1FB024CA0FB0365361955EB0C0501
:10255000A1FB034C4CF10003A0FB021C16EB0C0684
:10256000654153F10003094218BF46F0010613F418
:10257000007F0BD14FEA03314FEA053041EA155194
:1025800040EA165034036FF003020AE04FEAC32119
:102590004FEAC52041EA555140EA5650F4026FF027
:1025A000020202EB2E4201EB025585EACE710AD0FF
:1025B0005FEA440C18BF24F0004450F1000041F1E0
:1025C000000120EAD47040F2FE7C624500D270BD6A
:1025D000A84214BF4FF080444FF04044002E08BF83
:1025E0000024BEF1806FA8BFA1F1C041BDE87040DA
:1025F00080F2828001F1C04101F000414FF0000003
:1026000070470CEA13159EEA0C0F18BF95EA0C0FE1
:1026100006D081EA030E4FF000000EF0004170BDBD
:1026200000F01CF88900013E00F007B800F009B87E
:102630004FEA430C5FEA5C5C08D081EA030100F0DA
:102640005BB84FEA410C5FEA5C5CF6D102494FF09F
:10265000000070470000FF070000F87F0EF1020E37
:102660002EF0030E5EF8046B364205D4012A43EBCC
:10267000030515F5001F12D8012841EB010C1CF5CC
:10268000001F0CD80ED14FEAD17C0CEB4C0C0CF196
:10269000020C15F5001F08BF4CEBD37C04E04FF093
:1026A000080C01E04FEAD37C0CEB4C0526FA05F64A
:1026B00006F00706B6F1040C06D20EEB860CBDE858
:1026C00070404CF0010C6047DFE80CF0090B02028F
:1026D0004FF00041A1F500214FF0000070BD1946F8
:1026E0001046012851EB010418BFD4F5001484BF33
:1026F000002001F0004170BD0808A0F500114FEA6C
:1027000031017047F1EE100A4FF6FF71C0F2C0318F
:1027100020EA010040F04070E1EE100A704700002E
:102720000000000000000102030406070809000081
:102730000000010203040000000402408000400089
:10274000602700080000002010000000F8010008C9
:102750007027000810000020580800001802000828
:1027600001000000100000000024F4000000000040
:040000050800019559
:00000001FF
